{
  "_format": "hh3-artifact-1",
  "contractName": "SBTMock",
  "sourceName": "contracts/mock/tokens/SBTMock.sol",
  "abi": [
    {
      "inputs": [],
      "name": "InvalidInitialization",
      "type": "error"
    },
    {
      "inputs": [],
      "name": "NotInitializing",
      "type": "error"
    },
    {
      "inputs": [],
      "name": "ReceiverIsZeroAddress",
      "type": "error"
    },
    {
      "inputs": [
        {
          "internalType": "uint256",
          "name": "tokenId",
          "type": "uint256"
        }
      ],
      "name": "TokenAlreadyExists",
      "type": "error"
    },
    {
      "inputs": [
        {
          "internalType": "uint256",
          "name": "tokenId",
          "type": "uint256"
        }
      ],
      "name": "TokenDoesNotExist",
      "type": "error"
    },
    {
      "anonymous": false,
      "inputs": [
        {
          "indexed": false,
          "internalType": "uint64",
          "name": "version",
          "type": "uint64"
        }
      ],
      "name": "Initialized",
      "type": "event"
    },
    {
      "anonymous": false,
      "inputs": [
        {
          "indexed": true,
          "internalType": "address",
          "name": "from",
          "type": "address"
        },
        {
          "indexed": true,
          "internalType": "address",
          "name": "to",
          "type": "address"
        },
        {
          "indexed": true,
          "internalType": "uint256",
          "name": "tokenId",
          "type": "uint256"
        }
      ],
      "name": "Transfer",
      "type": "event"
    },
    {
      "inputs": [
        {
          "internalType": "string",
          "name": "name_",
          "type": "string"
        },
        {
          "internalType": "string",
          "name": "symbol_",
          "type": "string"
        }
      ],
      "name": "__SBTMock_init",
      "outputs": [],
      "stateMutability": "nonpayable",
      "type": "function"
    },
    {
      "inputs": [
        {
          "internalType": "address",
          "name": "owner_",
          "type": "address"
        }
      ],
      "name": "balanceOf",
      "outputs": [
        {
          "internalType": "uint256",
          "name": "",
          "type": "uint256"
        }
      ],
      "stateMutability": "view",
      "type": "function"
    },
    {
      "inputs": [],
      "name": "baseURI",
      "outputs": [
        {
          "internalType": "string",
          "name": "",
          "type": "string"
        }
      ],
      "stateMutability": "view",
      "type": "function"
    },
    {
      "inputs": [
        {
          "internalType": "uint256",
          "name": "tokenId_",
          "type": "uint256"
        }
      ],
      "name": "burn",
      "outputs": [],
      "stateMutability": "nonpayable",
      "type": "function"
    },
    {
      "inputs": [
        {
          "internalType": "address",
          "name": "to_",
          "type": "address"
        },
        {
          "internalType": "uint256",
          "name": "tokenId_",
          "type": "uint256"
        }
      ],
      "name": "mint",
      "outputs": [],
      "stateMutability": "nonpayable",
      "type": "function"
    },
    {
      "inputs": [
        {
          "internalType": "string",
          "name": "name_",
          "type": "string"
        },
        {
          "internalType": "string",
          "name": "symbol_",
          "type": "string"
        }
      ],
      "name": "mockInit",
      "outputs": [],
      "stateMutability": "nonpayable",
      "type": "function"
    },
    {
      "inputs": [],
      "name": "name",
      "outputs": [
        {
          "internalType": "string",
          "name": "",
          "type": "string"
        }
      ],
      "stateMutability": "view",
      "type": "function"
    },
    {
      "inputs": [
        {
          "internalType": "uint256",
          "name": "tokenId_",
          "type": "uint256"
        }
      ],
      "name": "ownerOf",
      "outputs": [
        {
          "internalType": "address",
          "name": "",
          "type": "address"
        }
      ],
      "stateMutability": "view",
      "type": "function"
    },
    {
      "inputs": [
        {
          "internalType": "string",
          "name": "baseTokenURI_",
          "type": "string"
        }
      ],
      "name": "setBaseURI",
      "outputs": [],
      "stateMutability": "nonpayable",
      "type": "function"
    },
    {
      "inputs": [
        {
          "internalType": "uint256",
          "name": "tokenId_",
          "type": "uint256"
        },
        {
          "internalType": "string",
          "name": "tokenURI_",
          "type": "string"
        }
      ],
      "name": "setTokenURI",
      "outputs": [],
      "stateMutability": "nonpayable",
      "type": "function"
    },
    {
      "inputs": [
        {
          "internalType": "bytes4",
          "name": "interfaceId_",
          "type": "bytes4"
        }
      ],
      "name": "supportsInterface",
      "outputs": [
        {
          "internalType": "bool",
          "name": "",
          "type": "bool"
        }
      ],
      "stateMutability": "view",
      "type": "function"
    },
    {
      "inputs": [],
      "name": "symbol",
      "outputs": [
        {
          "internalType": "string",
          "name": "",
          "type": "string"
        }
      ],
      "stateMutability": "view",
      "type": "function"
    },
    {
      "inputs": [
        {
          "internalType": "uint256",
          "name": "tokenId_",
          "type": "uint256"
        }
      ],
      "name": "tokenExists",
      "outputs": [
        {
          "internalType": "bool",
          "name": "",
          "type": "bool"
        }
      ],
      "stateMutability": "view",
      "type": "function"
    },
    {
      "inputs": [
        {
          "internalType": "address",
          "name": "owner_",
          "type": "address"
        },
        {
          "internalType": "uint256",
          "name": "index_",
          "type": "uint256"
        }
      ],
      "name": "tokenOf",
      "outputs": [
        {
          "internalType": "uint256",
          "name": "",
          "type": "uint256"
        }
      ],
      "stateMutability": "view",
      "type": "function"
    },
    {
      "inputs": [
        {
          "internalType": "uint256",
          "name": "tokenId_",
          "type": "uint256"
        }
      ],
      "name": "tokenURI",
      "outputs": [
        {
          "internalType": "string",
          "name": "",
          "type": "string"
        }
      ],
      "stateMutability": "view",
      "type": "function"
    },
    {
      "inputs": [
        {
          "internalType": "address",
          "name": "owner_",
          "type": "address"
        }
      ],
      "name": "tokensOf",
      "outputs": [
        {
          "internalType": "uint256[]",
          "name": "",
          "type": "uint256[]"
        }
      ],
      "stateMutability": "view",
      "type": "function"
    }
  ],
  "bytecode": "0x6080604052348015600e575f5ffd5b506113c88061001c5f395ff3fe608060405234801561000f575f5ffd5b50600436106100fa575f3560e01c80635a3f26721161009357806395d89b411161006357806395d89b4114610223578063a3dabb021461022b578063c87b56dd1461023e578063f829d12014610251575f5ffd5b80635a3f2672146101af5780636352211e146101cf5780636c0360eb146101fa57806370a0823114610202575f5ffd5b806340c10f19116100ce57806340c10f191461016357806342966c681461017657806354438add1461018957806355f804b31461019c575f5ffd5b8062923f9e146100fe57806301ffc9a71461012657806306fdde0314610139578063162094c41461014e575b5f5ffd5b61011161010c366004610f45565b610264565b60405190151581526020015b60405180910390f35b610111610134366004610f5c565b610280565b6101416102d1565b60405161011d9190610f83565b61016161015c366004610ffd565b610372565b005b610161610171366004611060565b6103b6565b610161610184366004610f45565b6103c4565b610161610197366004611088565b6103d0565b6101616101aa3660046110f4565b610534565b6101c26101bd366004611133565b610572565b60405161011d919061114c565b6101e26101dd366004610f45565b6105b7565b6040516001600160a01b03909116815260200161011d565b6101416105c1565b610215610210366004611133565b6105ff565b60405190815260200161011d565b61014161063a565b610215610239366004611060565b610678565b61014161024c366004610f45565b6106bc565b61016161025f366004611088565b6107f2565b5f8061026f83610869565b6001600160a01b0316141592915050565b5f6001600160e01b03198216635b5e139f60e01b14806102b057506001600160e01b0319821663ddd872b560e01b145b806102cb57506301ffc9a760e01b6001600160e01b03198316145b92915050565b5f5160206113535f395f51905f5280546060919081906102f09061118e565b80601f016020809104026020016040519081016040528092919081815260200182805461031c9061118e565b80156103675780601f1061033e57610100808354040283529160200191610367565b820191905f5260205f20905b81548152906001019060200180831161034a57829003601f168201915b505050505091505090565b6103b18383838080601f0160208091040260200160405190810160405280939291908181526020018383808284375f920191909152506108a292505050565b505050565b6103c08282610915565b5050565b6103cd816109fe565b50565b5f6103d9610adf565b805490915060ff600160401b820416159067ffffffffffffffff165f811580156104005750825b90505f8267ffffffffffffffff16600114801561041c5750303b155b90508115801561042a575080155b156104485760405163f92ee8a960e01b815260040160405180910390fd5b845467ffffffffffffffff19166001178555831561047257845460ff60401b1916600160401b1785555b6104e389898080601f0160208091040260200160405190810160405280939291908181526020018383808284375f9201919091525050604080516020601f8d018190048102820181019092528b815292508b91508a90819084018382808284375f92019190915250610b0792505050565b831561052957845460ff60401b19168555604051600181527fc7f505b2f371ae2175ee4913f4499e1f2633a7b5936321eed1cdaeb6115181d29060200160405180910390a15b505050505050505050565b6103c082828080601f0160208091040260200160405190810160405280939291908181526020018383808284375f92019190915250610b3792505050565b6001600160a01b0381165f9081525f5160206113735f395f51905f52602052604090206060905f5160206113535f395f51905f52906105b090610b70565b9392505050565b5f6102cb82610869565b7f5a40b9c2fd292e4e0de2167f20d990524d7ad1b1bbf797f218a97c33c5ea76ff80546060915f5160206113535f395f51905f52916102f09061118e565b6001600160a01b0381165f9081525f5160206113735f395f51905f52602052604081205f5160206113535f395f51905f52906105b090610b7c565b7f5a40b9c2fd292e4e0de2167f20d990524d7ad1b1bbf797f218a97c33c5ea76fc80546060915f5160206113535f395f51905f52916102f09061118e565b6001600160a01b0382165f9081525f5160206113735f395f51905f52602052604081205f5160206113535f395f51905f52906106b49084610b85565b949350505050565b5f8181527f5a40b9c2fd292e4e0de2167f20d990524d7ad1b1bbf797f218a97c33c5ea77006020526040812080546060925f5160206113535f395f51905f529290916107079061118e565b80601f01602080910402602001604051908101604052809291908181526020018280546107339061118e565b801561077e5780601f106107555761010080835404028352916020019161077e565b820191905f5260205f20905b81548152906001019060200180831161076157829003601f168201915b5050505050905080515f14610794579392505050565b5f61079d6105c1565b905080515f146107db57806107b186610b90565b6040516020016107c29291906111dd565b6040516020818303038152906040529350505050919050565b505060408051602081019091525f81529392505050565b61086384848080601f0160208091040260200160405190810160405280939291908181526020018383808284375f9201919091525050604080516020601f880181900481028201810190925286815292508691508590819084018382808284375f92019190915250610b0792505050565b50505050565b5f9081527f5a40b9c2fd292e4e0de2167f20d990524d7ad1b1bbf797f218a97c33c5ea76fd60205260409020546001600160a01b031690565b6108ab82610264565b6108d05760405163c927e5bf60e01b8152600481018390526024015b60405180910390fd5b5f8281527f5a40b9c2fd292e4e0de2167f20d990524d7ad1b1bbf797f218a97c33c5ea7700602052604090205f5160206113535f395f51905f52906108638382611250565b6001600160a01b03821661093c576040516380f67d2360e01b815260040160405180910390fd5b61094581610264565b1561096657604051636025413b60e01b8152600481018290526024016108c7565b6001600160a01b0382165f9081525f5160206113735f395f51905f52602052604090205f5160206113535f395f51905f52906109a29083610c20565b505f82815260028201602052604080822080546001600160a01b0319166001600160a01b03871690811790915590518492907fddf252ad1be2c89b69c2b068fc378daa952ba7f163c4a11628f55a4df523b3ef908290a4505050565b5f610a0882610869565b90506001600160a01b038116610a345760405163c927e5bf60e01b8152600481018390526024016108c7565b6001600160a01b0381165f9081525f5160206113735f395f51905f52602052604090205f5160206113535f395f51905f5290610a709084610c2b565b505f838152600282016020908152604080832080546001600160a01b0319169055600584019091528120610aa391610efb565b60405183905f906001600160a01b038516907fddf252ad1be2c89b69c2b068fc378daa952ba7f163c4a11628f55a4df523b3ef908390a4505050565b5f807ff0c57e16840df040f15088dc2f81fe391c3923bec73e23a9662efc9c229c6a006102cb565b610b0f610c36565b5f5160206113535f395f51905f5280610b288482611250565b50600181016108638382611250565b5f5160206113535f395f51905f527f5a40b9c2fd292e4e0de2167f20d990524d7ad1b1bbf797f218a97c33c5ea76ff6103b18382611250565b60605f6105b083610c5d565b5f6102cb825490565b5f6105b08383610cb6565b60605f610b9c83610cdc565b60010190505f8167ffffffffffffffff811115610bbb57610bbb6111f1565b6040519080825280601f01601f191660200182016040528015610be5576020820181803683370190505b5090508181016020015b5f19016f181899199a1a9b1b9c1cb0b131b232b360811b600a86061a8153600a8504945084610bef57509392505050565b5f6105b08383610db3565b5f6105b08383610dff565b610c3e610ee2565b610c5b57604051631afcd79f60e31b815260040160405180910390fd5b565b6060815f01805480602002602001604051908101604052809291908181526020018280548015610caa57602002820191905f5260205f20905b815481526020019060010190808311610c96575b50505050509050919050565b5f825f018281548110610ccb57610ccb61130b565b905f5260205f200154905092915050565b5f8072184f03e93ff9f4daa797ed6e38ed64bf6a1f0160401b8310610d1a5772184f03e93ff9f4daa797ed6e38ed64bf6a1f0160401b830492506040015b6d04ee2d6d415b85acef81000000008310610d46576d04ee2d6d415b85acef8100000000830492506020015b662386f26fc100008310610d6457662386f26fc10000830492506010015b6305f5e1008310610d7c576305f5e100830492506008015b6127108310610d9057612710830492506004015b60648310610da2576064830492506002015b600a83106102cb5760010192915050565b5f818152600183016020526040812054610df857508154600181810184555f8481526020808220909301849055845484825282860190935260409020919091556102cb565b505f6102cb565b5f8181526001830160205260408120548015610ed9575f610e2160018361131f565b85549091505f90610e349060019061131f565b9050808214610e93575f865f018281548110610e5257610e5261130b565b905f5260205f200154905080875f018481548110610e7257610e7261130b565b5f918252602080832090910192909255918252600188019052604090208390555b8554869080610ea457610ea461133e565b600190038181905f5260205f20015f90559055856001015f8681526020019081526020015f205f9055600193505050506102cb565b5f9150506102cb565b5f610eeb610adf565b54600160401b900460ff16919050565b508054610f079061118e565b5f825580601f10610f16575050565b601f0160209004905f5260205f20908101906103cd91905b80821115610f41575f8155600101610f2e565b5090565b5f60208284031215610f55575f5ffd5b5035919050565b5f60208284031215610f6c575f5ffd5b81356001600160e01b0319811681146105b0575f5ffd5b602081525f82518060208401528060208501604085015e5f604082850101526040601f19601f83011684010191505092915050565b5f5f83601f840112610fc8575f5ffd5b50813567ffffffffffffffff811115610fdf575f5ffd5b602083019150836020828501011115610ff6575f5ffd5b9250929050565b5f5f5f6040848603121561100f575f5ffd5b83359250602084013567ffffffffffffffff81111561102c575f5ffd5b61103886828701610fb8565b9497909650939450505050565b80356001600160a01b038116811461105b575f5ffd5b919050565b5f5f60408385031215611071575f5ffd5b61107a83611045565b946020939093013593505050565b5f5f5f5f6040858703121561109b575f5ffd5b843567ffffffffffffffff8111156110b1575f5ffd5b6110bd87828801610fb8565b909550935050602085013567ffffffffffffffff8111156110dc575f5ffd5b6110e887828801610fb8565b95989497509550505050565b5f5f60208385031215611105575f5ffd5b823567ffffffffffffffff81111561111b575f5ffd5b61112785828601610fb8565b90969095509350505050565b5f60208284031215611143575f5ffd5b6105b082611045565b602080825282518282018190525f918401906040840190835b81811015611183578351835260209384019390920191600101611165565b509095945050505050565b600181811c908216806111a257607f821691505b6020821081036111c057634e487b7160e01b5f52602260045260245ffd5b50919050565b5f81518060208401855e5f93019283525090919050565b5f6106b46111eb83866111c6565b846111c6565b634e487b7160e01b5f52604160045260245ffd5b601f8211156103b157805f5260205f20601f840160051c8101602085101561122a5750805b601f840160051c820191505b81811015611249575f8155600101611236565b5050505050565b815167ffffffffffffffff81111561126a5761126a6111f1565b61127e81611278845461118e565b84611205565b6020601f8211600181146112b0575f83156112995750848201515b5f19600385901b1c1916600184901b178455611249565b5f84815260208120601f198516915b828110156112df57878501518255602094850194600190920191016112bf565b50848210156112fc57868401515f19600387901b60f8161c191681555b50505050600190811b01905550565b634e487b7160e01b5f52603260045260245ffd5b818103818111156102cb57634e487b7160e01b5f52601160045260245ffd5b634e487b7160e01b5f52603160045260245ffdfe5a40b9c2fd292e4e0de2167f20d990524d7ad1b1bbf797f218a97c33c5ea76fb5a40b9c2fd292e4e0de2167f20d990524d7ad1b1bbf797f218a97c33c5ea76fea2646970667358221220d76502c0d101b0a26b9c71ca7fa105bc60d45ed763315a9cf6e1befba0c29e0664736f6c634300081c0033",
  "linkReferences": {},
  "deployedLinkReferences": {},
  "immutableReferences": {},
  "inputSourceName": "project/contracts/mock/tokens/SBTMock.sol",
  "buildInfoId": "solc-0_8_28-1febeb225f4420f6393a080dac2417191b9c1c42"
}